:020000040800F2
:10000000F8CF0020A91900088921000897210008CD
:100010009D210008A3210008A9210008000000007C
:10002000000000000000000000000000AF210008F8
:10003000BD21000800000000CB210008D9210008E4
:10004000191A0008191A0008191A0008191A0008C4
:10005000191A0008191A0008191A0008191A0008B4
:10006000191A0008191A0008191A0008191A0008A4
:10007000191A0008191A0008191A0008191A000894
:10008000191A0008191A0008191A0008191A000884
:10009000191A0008191A0008191A0008191A000874
:1000A000191A0008191A0008191A0008191A000864
:1000B000191A0008191A0008191A0008191A000854
:1000C000191A0008191A0008191A0008191A000844
:1000D000E9210008191A0008191A0008191A00085D
:1000E000191A0008191A0008191A0008191A000824
:1000F000191A0008191A0008191A0008191A000814
:10010000191A0008191A0008191A0008191A000803
:10011000191A0008191A0008191A0008191A0008F3
:10012000191A0008191A0008191A0008191A0008E3
:10013000191A0008191A0008191A0008191A0008D3
:10014000191A0008191A0008191A0008191A0008C3
:10015000191A0008191A0008191A0008191A0008B3
:10016000191A0008191A0008191A0008191A0008A3
:10017000191A0008191A0008191A0008191A000893
:10018000191A0008191A000880B49DB000AFF86071
:100190007A601A460B467B8113463B817B897B66DE
:1001A0007B6EBB657B6E9B087B660023BB66002372
:1001B000FB667B6E3B66BA6E7B6E13447B657A6D25
:1001C0007B6E13443B653A6D7B6E1344FB64BB6EE0
:1001D000DB00FA68134493ED007A3B6DDB00FA68AC
:1001E0001344D3ED007A77EE277AC7ED127ABB6E0F
:1001F000DB00FA68134493ED007A3B6DDB00FA688C
:100200001344D3ED007A77EE677AC7ED117ABB6EAF
:10021000DB000433FA68134493ED007A3B6DDB0096
:100220000433FA681344D3ED007A77EE277AC7EDEA
:10023000107ABB6EDB000433FA68134493ED007A46
:100240003B6DDB000433FA681344D3ED007A77EE9C
:10025000677AC7ED0F7A7B6DDB00FA68134493ED84
:10026000007AFB6CDB00FA681344D3ED007A77EE7A
:10027000277AC7ED0E7ABB6EDB00FA68134497ED60
:10028000127AD7ED0E7A77EE277AC3ED007A97EDE2
:10029000127AD7ED0E7A77EE677AC7ED127A7B6D18
:1002A000DB000433FA68134493ED007AFB6CDB0047
:1002B0000433FA681344D3ED007A77EE277AC7ED5A
:1002C0000D7ABB6EDB000433FA68134497ED107AA5
:1002D000D7ED0D7A77EE277AC3ED007A97ED107A95
:1002E000D7ED0D7A77EE677AC7ED107A7B6DDB007C
:1002F0000433FA68134493ED007AFB6CDB0004339B
:10030000FA681344D3ED007A77EE677AC7ED0E7A78
:100310007B6DDB00FA68134493ED007AFB6CDB0025
:10032000FA681344D3ED007A77EE677AC7ED0D7A59
:10033000FB6E5B003B633B6BDB007A6813441B681E
:10034000FB623B6BDB0004337A6813441B68BB62BF
:1003500097ED127AD7ED0B7A27EE277AD7ED106A50
:10036000D7ED0A7A66EEA77A7B6DDB00FA68134454
:1003700077EE277AC3ED007A97ED107AD7ED0B7AF6
:1003800027EE277AD7ED126AD7ED0A7A66EEA77ABA
:100390007B6DDB000433FA68134477EE677AC3EDB4
:1003A000007A97ED117AD7ED0E7A77EE277AC7EDBE
:1003B000127A97ED117AD7ED0E7A77EE677AC7ED5C
:1003C000117A97ED0F7AD7ED0D7A77EE677AC7ED50
:1003D000107A97ED0F7AD7ED0D7A77EE277AC7ED81
:1003E0000F7AFB6EDB007A6813441B687B62FB6E3E
:1003F000DB0004337A6813441B683B6297ED127A82
:10040000D7ED097A27EE277AD7ED106AD7ED087A6B
:1004100066EEA77A3B6DDB00FA68134477EE277A25
:10042000C3ED007A97ED107AD7ED097A27EE277A97
:10043000D7ED126AD7ED087A66EEA77A3B6DDB003E
:100440000433FA68134477EE677AC3ED007A3A6BA7
:10045000FB6E1344FB61FB69DB007A6813441B6885
:10046000BB61FB69DB0004337A6813441B687B6162
:1004700097ED117AD7ED067A27EE277AD7ED0F6A36
:10048000D7ED057A66EEA77AFB6CDB00FA681344B9
:1004900077EE277AC3ED007A97ED0F7AD7ED067ADB
:1004A00027EE277AD7ED116AD7ED057A66EEA77A9F
:1004B000FB6CDB000433FA68134477EE677AC3ED14
:1004C000007A3B89FA6E1344FB66BB6E0133BB6650
:1004D0003B6E013B3B663B6E002B7FF46CAE3B8971
:1004E0009B003B817B899B089BB2FB65AEE17B6EE9
:1004F000BB657B6E9B087B660023FB6600233B6627
:1005000098E1FB6E5B003B633A6BFB6E1344FB614F
:10051000FB6EDB007A6813441B687B62FB6EDB00BA
:1005200004337A6813441B683B623B6BDB007A68D8
:1005300013441B68FB623B6BDB0004337A68134493
:100540001B68BB62FB69DB007A6813441B68BB61F4
:10055000FB69DB0004337A6813441B687B613B89C9
:10056000FA6E1344FB663B6EBB665BE1BA6E7B6E54
:1005700013447B657A6D7B6E13443B653A6D7B6EED
:100580001344FB64BB6EDB00FA68134493ED007AFE
:100590003B6DDB00FA681344D3ED007A77EE277ADF
:1005A000C7ED127ABB6EDB00FA68134493ED007A54
:1005B0003B6DDB00FA681344D3ED007A77EE677A7F
:1005C000C7ED117ABB6EDB000433FA68134493ED78
:1005D000007A3B6DDB000433FA681344D3ED007AF4
:1005E00077EE277AC7ED107ABB6EDB000433FA682A
:1005F000134493ED007A3B6DDB000433FA68134437
:10060000D3ED007A77EE677AC7ED0F7A7B6DDB006A
:10061000FA68134493ED007AFB6CDB00FA6813442C
:10062000D3ED007A77EE277AC7ED0E7ABB6EDB004A
:10063000FA68134497ED127AD7ED0E7A77EE277A9F
:10064000C3ED007A97ED127AD7ED0E7A77EE677ADE
:10065000C7ED127A7B6DDB000433FA68134493ED27
:10066000007AFB6CDB000433FA681344D3ED007AA4
:1006700077EE277AC7ED0D7ABB6EDB000433FA689C
:10068000134497ED107AD7ED0D7A77EE277AC3ED04
:10069000007A97ED107AD7ED0D7A77EE677AC7ED8D
:1006A000107A7B6DDB000433FA68134493ED007A13
:1006B000FB6CDB000433FA681344D3ED007A77EE69
:1006C000677AC7ED0E7A7B6DDB00FA68134493ED11
:1006D000007AFB6CDB00FA681344D3ED007A77EE06
:1006E000677AC7ED0D7A97ED127AD7ED0B7A27EE80
:1006F000277AD7ED106AD7ED0A7A66EEA77A7B6D76
:10070000DB00FA68134477EE277AC3ED007A97EDA1
:10071000107AD7ED0B7A27EE277AD7ED126AD7ED4C
:100720000A7A66EEA77A7B6DDB000433FA6813441D
:1007300077EE677AC3ED007A97ED117AD7ED0E7AEE
:1007400077EE277AC7ED127A97ED117AD7ED0E7A08
:1007500077EE677AC7ED117A97ED0F7AD7ED0D7ABC
:1007600077EE677AC7ED107A97ED0F7AD7ED0D7AAD
:1007700077EE277AC7ED0F7A97ED127AD7ED097ADF
:1007800027EE277AD7ED106AD7ED087A66EEA77ABA
:100790003B6DDB00FA68134477EE277AC3ED007AED
:1007A00097ED107AD7ED097A27EE277AD7ED126AFE
:1007B000D7ED087A66EEA77A3B6DDB000433FA6862
:1007C000134477EE677AC3ED007A97ED117AD7ED8F
:1007D000067A27EE277AD7ED0F6AD7ED057A66EE0F
:1007E000A77AFB6CDB00FA68134477EE277AC3ED37
:1007F000007A97ED0F7AD7ED067A27EE277AD7EDB4
:10080000116AD7ED057A66EEA77AFB6CDB0004333C
:10081000FA68134477EE677AC3ED007ABA6EBB6D5F
:100820001344BB667B89BA6E9A42FFF49FAE3B6E5F
:1008300001333B667B6E013B3A6E9A427FF661AEB6
:100840003B899B003B81FB6D9B08FB65FB6D042B8B
:100850003FF64DAE7B6EBB657B6E9B087B660023CF
:10086000BB6607E1BA6E7B6E13447B657A6D7B6E67
:1008700013443B653A6D7B6E1344FB64BB6EDB0037
:10088000FA68134493ED007A3B6DDB00FA68134479
:10089000D3ED007A77EE277AC7ED127ABB6EDB00D4
:1008A000FA68134493ED007A3B6DDB00FA68134459
:1008B000D3ED007A77EE677AC7ED117ABB6EDB0075
:1008C0000433FA68134493ED007A3B6DDB00043384
:1008D000FA681344D3ED007A77EE277AC7ED107AE1
:1008E000BB6EDB000433FA68134493ED007A3B6D72
:1008F000DB000433FA681344D3ED007A77EE677AAD
:10090000C7ED0F7A7B6DDB00FA68134493ED007A34
:10091000FB6CDB00FA681344D3ED007A77EE277A9C
:10092000C7ED0E7ABB6EDB00FA68134497ED127ABE
:10093000D7ED0E7A77EE277AC3ED007A97ED127A2B
:10094000D7ED0E7A77EE677AC7ED127A7B6DDB0012
:100950000433FA68134493ED007AFB6CDB00043334
:10096000FA681344D3ED007A77EE277AC7ED0D7A53
:10097000BB6EDB000433FA68134497ED107AD7EDB1
:100980000D7A77EE277AC3ED007A97ED107AD7EDDE
:100990000D7A77EE677AC7ED107A7B6DDB00043352
:1009A000FA68134493ED007AFB6CDB000433FA68B9
:1009B0001344D3ED007A77EE677AC7ED0E7A7B6D3C
:1009C000DB00FA68134493ED007AFB6CDB00FA68F5
:1009D0001344D3ED007A77EE677AC7ED0D7A7B6D1D
:1009E000DB00FA681344BA6C1A607B6DDB000433D9
:1009F000FA6813443A6C1A6097ED117AD7ED0E7AC3
:100A000077EE277AC7ED127A97ED117AD7ED0E7A45
:100A100077EE677AC7ED117A97ED0F7AD7ED0D7AF9
:100A200077EE677AC7ED107A97ED0F7AD7ED0D7AEA
:100A300077EE277AC7ED0F7A3B6DDB00FA68134437
:100A4000BA6C1A603B6DDB000433FA6813443A6CED
:100A50001A60FB6CDB00FA6813447A6C1A60FB6C5A
:100A6000DB000433FA681344FA6B1A60BA6EBB6D8C
:100A70001344BB667A89BB6DD31ABA6E9A427FF66D
:100A8000F1AE00BF7437BD465DF8047B704780B49B
:100A90009DB000AFF8607A601A460B467B81134622
:100AA0003B817B897B667B6EBB657B6E9B087B662F
:100AB0000023BB660023FB667B6E3B66BA6E7B6ED3
:100AC00013447B657A6D7B6E13443B653A6D7B6E98
:100AD0001344FB64BB6EDB00FA68134493ED007AA9
:100AE0003B6DDB00FA681344D3ED007A77EE277A8A
:100AF000C7ED127ABB6EDB00FA68134493ED007AFF
:100B00003B6DDB00FA681344D3ED007A77EE677A29
:100B1000C7ED117ABB6EDB000433FA68134493ED22
:100B2000007A3B6DDB000433FA681344D3ED007A9E
:100B300077EE277AC7ED107ABB6EDB000433FA68D4
:100B4000134493ED007A3B6DDB000433FA681344E1
:100B5000D3ED007A77EE677AC7ED0F7A7B6DDB0015
:100B6000FA68134493ED007AFB6CDB00FA681344D7
:100B7000D3ED007A77EE277AC7ED0E7ABB6EDB00F5
:100B8000FA68134497ED127AD7ED0E7A77EE277A4A
:100B9000C3ED007A97ED127AD7ED0E7A77EE677A89
:100BA000C7ED127A7B6DDB000433FA68134493EDD2
:100BB000007AFB6CDB000433FA681344D3ED007A4F
:100BC00077EE277AC7ED0D7ABB6EDB000433FA6847
:100BD000134497ED107AD7ED0D7A77EE277AC3EDAF
:100BE000007A97ED107AD7ED0D7A77EE677AC7ED38
:100BF000107A7B6DDB000433FA68134493ED007ABE
:100C0000FB6CDB000433FA681344D3ED007A77EE13
:100C1000677AC7ED0E7A7B6DDB00FA68134493EDBB
:100C2000007AFB6CDB00FA681344D3ED007A77EEB0
:100C3000677AC7ED0D7AFB6E5B003B633B6BDB00B5
:100C40007A6813441B68FB623B6BDB0004337A68F1
:100C500013441B68BB6297ED127AD7ED0B7A27EE2F
:100C6000277AD7ED106AD7ED0A7A66EEA77A7B6D00
:100C7000DB00FA68134477EE677AC3ED007A97EDEC
:100C8000107AD7ED0B7A27EE277AD7ED126AD7EDD7
:100C90000A7A66EEA77A7B6DDB000433FA681344A8
:100CA00077EE277AC3ED007A97ED117AD7ED0E7AB9
:100CB00077EE677AC7ED127A97ED117AD7ED0E7A53
:100CC00077EE277AC7ED117A97ED0F7AD7ED0D7A87
:100CD00077EE277AC7ED107A97ED0F7AD7ED0D7A78
:100CE00077EE677AC7ED0F7AFB6EDB007A68134404
:100CF0001B687B62FB6EDB0004337A6813441B685D
:100D00003B6297ED127AD7ED097A27EE277AD7ED75
:100D1000106AD7ED087A66EEA77A3B6DDB00FA68B9
:100D2000134477EE677AC3ED007A97ED107AD7ED2A
:100D3000097A27EE277AD7ED126AD7ED087A66EEA0
:100D4000A77A3B6DDB000433FA68134477EE277A09
:100D5000C3ED007A3A6BFB6E1344FB61FB69DB0069
:100D60007A6813441B68BB61FB69DB0004337A6853
:100D700013441B687B6197ED117AD7ED067A27EE55
:100D8000277AD7ED0F6AD7ED057A66EEA77AFB6C66
:100D9000DB00FA68134477EE677AC3ED007A97EDCB
:100DA0000F7AD7ED067A27EE277AD7ED116AD7EDBD
:100DB000057A66EEA77AFB6CDB000433FA6813440D
:100DC00077EE277AC3ED007A3B89FA6E1344FB660F
:100DD000BB6E0133BB663B6E013B3B663B6E002B3B
:100DE0007FF46CAE3B899B003B817B899B089BB267
:100DF000FB65AEE17B6EBB657B6E9B087B6600236B
:100E0000FB6600233B6698E1FB6E5B003B633A6B3D
:100E1000FB6E1344FB61FB6EDB007A6813441B68B6
:100E20007B62FB6EDB0004337A6813441B683B6211
:100E30003B6BDB007A6813441B68FB623B6BDB0097
:100E400004337A6813441B68BB62FB69DB007A6871
:100E500013441B68BB61FB69DB0004337A681344ED
:100E60001B687B613B89FA6E1344FB663B6EBB6675
:100E70005BE1BA6E7B6E13447B657A6D7B6E1344C7
:100E80003B653A6D7B6E1344FB64BB6EDB00FA6816
:100E9000134493ED007A3B6DDB00FA681344D3ED05
:100EA000007A77EE277AC7ED127ABB6EDB00FA681C
:100EB000134493ED007A3B6DDB00FA681344D3EDE5
:100EC000007A77EE677AC7ED117ABB6EDB000433E8
:100ED000FA68134493ED007A3B6DDB000433FA6843
:100EE0001344D3ED007A77EE277AC7ED107ABB6E04
:100EF000DB000433FA68134493ED007A3B6DDB00AA
:100F00000433FA681344D3ED007A77EE677AC7EDBD
:100F10000F7A7B6DDB00FA68134493ED007AFB6C6B
:100F2000DB00FA681344D3ED007A77EE277AC7ED39
:100F30000E7ABB6EDB00FA68134497ED127AD7ED98
:100F40000E7A77EE277AC3ED007A97ED127AD7ED15
:100F50000E7A77EE677AC7ED127A7B6DDB00043389
:100F6000FA68134493ED007AFB6CDB000433FA68F3
:100F70001344D3ED007A77EE277AC7ED0D7ABB6E76
:100F8000DB000433FA68134497ED107AD7ED0D7A3D
:100F900077EE277AC3ED007A97ED107AD7ED0D7AC8
:100FA00077EE677AC7ED107A7B6DDB000433FA6861
:100FB000134493ED007AFB6CDB000433FA681344AE
:100FC000D3ED007A77EE677AC7ED0E7A7B6DDB00A2
:100FD000FA68134493ED007AFB6CDB00FA68134463
:100FE000D3ED007A77EE677AC7ED0D7A97ED127A36
:100FF000D7ED0B7A27EE277AD7ED106AD7ED0A7A6C
:1010000066EEA77A7B6DDB00FA68134477EE677AA9
:10101000C3ED007A97ED107AD7ED0B7A27EE277A99
:10102000D7ED126AD7ED0A7A66EEA77A7B6DDB0000
:101030000433FA68134477EE277AC3ED007A97ED0C
:10104000117AD7ED0E7A77EE677AC7ED127A97EDBF
:10105000117AD7ED0E7A77EE277AC7ED117A97EDF0
:101060000F7AD7ED0D7A77EE277AC7ED107A97EDE4
:101070000F7AD7ED0D7A77EE677AC7ED0F7A97ED95
:10108000127AD7ED097A27EE277AD7ED106AD7EDD5
:10109000087A66EEA77A3B6DDB00FA68134477EEB8
:1010A000677AC3ED007A97ED107AD7ED097A27EECB
:1010B000277AD7ED126AD7ED087A66EEA77A3B6DEC
:1010C000DB000433FA68134477EE277AC3ED007A25
:1010D00097ED117AD7ED067A27EE277AD7ED0F6ACA
:1010E000D7ED057A66EEA77AFB6CDB00FA6813444D
:1010F00077EE677AC3ED007A97ED0F7AD7ED067A2F
:1011000027EE277AD7ED116AD7ED057A66EEA77A32
:10111000FB6CDB000433FA68134477EE277AC3EDE7
:10112000007ABA6EBB6D1344BB667B89BA6E9A4275
:10113000FFF49FAE3B6E01333B667B6E013B3A6E24
:101140009A427FF661AE3B899B003B81FB6D9B0819
:10115000FB65FB6D042B3FF64DAE7B6EBB657B6E76
:101160009B087B660023BB6633E1BA6E7B6E13443B
:101170007B657A6D7B6E13443B653A6D7B6E1344E1
:10118000FB64BB6EDB00FA68134493ED007A3B6DA1
:10119000DB00FA681344D3ED007A77EE277AC7EDC7
:1011A000127ABB6EDB00FA68134493ED007A3B6D54
:1011B000DB00FA681344D3ED007A77EE677AC7ED67
:1011C000117ABB6EDB000433FA68134493ED007AA6
:1011D0003B6DDB000433FA681344D3ED007A77EEFD
:1011E000277AC7ED107ABB6EDB000433FA6813442C
:1011F00093ED007A3B6DDB000433FA681344D3EDC2
:10120000007A77EE677AC7ED0F7A7B6DDB00FA68BC
:10121000134493ED007AFB6CDB00FA681344D3EDC2
:10122000007A77EE277AC7ED0E7A97ED127AD7ED2E
:101230000E7A37EE277ABB6EDB00FA681344D7EDDF
:101240001E7A67EE277AC3ED007A97ED127AD7ED12
:101250000E7A77EE677AC7ED127A7B6DDB00043386
:10126000FA68134493ED007AFB6CDB000433FA68F0
:101270001344D3ED007A77EE277AC7ED0D7A97ED18
:10128000107AD7ED0D7A37EE277ABB6EDB00043388
:10129000FA681344D7ED1E7A67EE277AC3ED007A19
:1012A00097ED107AD7ED0D7A77EE677AC7ED107A61
:1012B0007B6DDB000433FA68134493ED007AFB6C1A
:1012C000DB000433FA681344D3ED007A77EE677AD3
:1012D000C7ED0E7A7B6DDB00FA68134493ED007A5C
:1012E000FB6CDB00FA681344D3ED007A77EE677A83
:1012F000C7ED0D7A7B6DDB00FA68134497ED127A27
:10130000D7ED1E7A67EE277AC3ED007A7B6DDB009E
:101310000433FA68134497ED107AD7ED1E7A67EE1E
:10132000277AC3ED007A97ED117AD7ED0E7A77EE32
:10133000677AC7ED127A97ED117AD7ED0E7A77EECC
:10134000277AC7ED117A97ED0F7AD7ED0D7A77EE00
:10135000277AC7ED107A97ED0F7AD7ED0D7A77EEF1
:10136000677AC7ED0F7A3B6DDB00FA68134497ED9F
:10137000127AD7ED1E7A67EE277AC3ED007A3B6DBD
:10138000DB000433FA68134497ED107AD7ED1E7A28
:1013900067EE277AC3ED007AFB6CDB00FA68134432
:1013A00097ED117AD7ED1E7A67EE277AC3ED007AB2
:1013B000FB6CDB000433FA68134497ED0F7AD7ED2A
:1013C0001E7A67EE277AC3ED007ABA6EBB6D1344BE
:1013D000BB667A89BB6DD31ABA6E9A427FF6C5AEE8
:1013E00000BF7437BD465DF8047B704780B489B098
:1013F00000AFF8607B600B467B8113463B81002386
:10140000BB837B895B087B837B895B089BB2013351
:101410003B830023FB83BAE0FA8BBB8B9A426FD2EB
:10142000FB8BDB00FA6813441B687B61BB8BDB0022
:10143000FA681A44FB8BDB00F9680B4412681A60E7
:10144000BB8BDB00FA6813447A691A60FB8BDB0004
:101450000433FA6813441B687B61BB8BDB000433E5
:10146000FA681A44FB8BDB000433F9680B441268FA
:101470001A60BB8BDB000433FA6813447A691A6084
:10148000FA8B3B8B1344DB00FA6813441B687B61C7
:10149000BA8B3B8B1344DB00FA681A44F98B3B8B05
:1014A0000B44DB00F9680B4412681A60BA8B3B8B63
:1014B0001344DB00FA6813447A691A60FA8B3B8B99
:1014C0001344DB000433FA6813441B687B61BA8B56
:1014D0003B8B1344DB000433FA681A44F98B3B8BD3
:1014E0000B44DB000433F9680B4412681A60BA8BB2
:1014F0003B8B1344DB000433FA6813447A691A60A7
:10150000FB8B0133DB00FA6813441B687B61BA8BE9
:101510007B8B1344DB00FA681A44FB8B0133DB003E
:10152000F9680B4412681A60BA8B7B8B1344DB009A
:10153000FA6813447A691A60FB8B0133DB000433C9
:10154000FA6813441B687B61BA8B7B8B1344DB0006
:101550000433FA681A44FB8B0133DB000433F96867
:101560000B4412681A60BA8B7B8B1344DB00043384
:10157000FA6813447A691A607B681B88BB833B89CD
:101580005B007A6813447B60FB8B0233FB83FA8B2E
:101590007B8B023B9A427FF63FAF00BF2437BD46AC
:1015A0005DF8047B704780B588B002AFF860B96021
:1015B0007A60FB685B697B61FB689B79012B2BD1AF
:1015C000FB689B881846FB68DA68FB681969FB684A
:1015D0009B6801937B6800930B460146B86800F056
:1015E0003FF97B6919887B695A687B6998897B69AF
:1015F0001B69009303467868FFF749FAFB68DB79BB
:10160000012B30D17B6919887B69DA897B699B68FA
:101610007868FFF7EBFE26E07B6919887B695A68DA
:101620007B699B89B868FEF7AFFDFB68DB79012B0E
:1016300008D17B6919887B69DA897B699B68B868FE
:10164000FFF7D4FEFB689B881846FB68DA68FB68E6
:101650001969FB689B6801937B6800930B46014600
:10166000B86800F004F800BF1837BD4680BD80B4EC
:1016700091B000AFF860B9607A603B60BB6C083332
:101680003B63BB681B01043BBA6C1344FB62FB6801
:101690000833BB62BB68DB00043BFA6813447B621F
:1016A000BB68DB00FA681344FA6812681A60BB680A
:1016B000DB000433FA681344FA6852681A60FB6C62
:1016C000DB007A681344BB63FB6CDB003A681344AD
:1016D0007B63BB68013BFB6390E0BB6B1A1DBA6385
:1016E0001B683B62BB6B1B68FB61BB6AD3ED007A76
:1016F00097ED087A67EE277AC7ED067ABB6A1A1D5E
:10170000BA62D3ED007A97ED077A67EE277AC7EDD4
:10171000057ABB6A93ED007A7B6AD3ED007A37EEE7
:10172000277AD7ED077A67EE277A97ED067A77EE74
:10173000677AC7ED067ABB6A1A1DBA6293ED007A22
:10174000D7ED087A67EE277A97ED057A77EE277A54
:10175000C7ED057A7B6B1B683B617B6A1A1F7A6257
:1017600093ED007AD7ED047A67EE277A97ED057A44
:1017700077EE677AC7ED057A7B6A93ED007AD7ED4D
:10178000077A67EE277A97ED057A77EE677AC7EDE5
:10179000057A7B6A1A1F7A6293ED007AD7ED047A94
:1017A00067EE277A97ED067A77EE277AC7ED067A05
:1017B0003B6B1A1D3A63BA691A603B6B1A1D3A6398
:1017C0007A691A60FB6A1A1FFA62D7ED057AF1EEA0
:1017D000677AC3ED007AFB6A1A1FFA62BA691A6067
:1017E000FB6CDB007A6B13447B63FB6CDB00043B1C
:1017F000BA6B1344BB63FB6B013BFB63FB6B002BBE
:101800007FF46BAFFB6893ED007AFB680433D3ED94
:10181000007ABB68DB00BA6C134477EE677AC3EDDD
:10182000007ABB68DB000433BA6C13444FF000024B
:101830001A60FB6893ED007AFB680433D3ED007AFD
:1018400077EE277ABB6CC3ED007ABB6C04334FF0A4
:1018500000021A6000BF4437BD465DF8047B704744
:1018600080B48FB000AFF860B9607A603B60FB680D
:10187000FB62BB68DB000433FA681344BB627B681D
:101880007B633B683B6384E07B6B1A1D7A631B6858
:101890007B627B6B1B683B62FB6AD3ED007A97ED42
:1018A000097A67EE277AC7ED077AFB6A1A1DFA6292
:1018B000D3ED007AF1EE677A97ED087A67EE277A32
:1018C000C7ED067AFB6A93ED007ABB6AD3ED007A26
:1018D00037EE277AD7ED087A67EE277A97ED077A01
:1018E00077EE277AC7ED077AFB6A1A1DFA6293ED45
:1018F000007AD7ED097A67EE277A97ED067A77EEC8
:10190000277AC7ED067A3B6B1B687B61BB6A1A1F9F
:10191000BA6293ED007AD7ED057A67EE277A97EDF4
:10192000067A77EE677AC7ED067ABB6A93ED007A9E
:10193000D7ED057A67EE277A97ED077A77EE277A63
:10194000C7ED077ABB6A1A1FBA6293ED007AD7ED2A
:10195000087A67EE277A97ED067A77EE277AC7ED51
:10196000067A3B6C1A1D3A64FA691A603B6C1A1DC0
:101970003A64BA691A607B6CDB003A6B13443B63D0
:101980007B6CDB00043B7A6B13447B63BB68013BDD
:10199000BB60BB68002B7FF477AF00BF3C37BD4610
:1019A0005DF8047B7047000080B582B000AF144B37
:1019B0007B60144B3B6007E07A68131D7B603B68DB
:1019C000191D396012681A603B680F4A9342F3D3BD
:1019D0000E480F494FF000028842B8BF40F8042B70
:1019E000FADBDFF83000016841F47001016000F0BB
:1019F0002FFE00F071F800BF0837BD4680BD00BF64
:101A0000CCA1000800000020300700203007002093
:101A1000F8C7002088ED00E080B400AFFEE70000CA
:101A200080B582B000AF786039607B6807EE903A8D
:101A3000B8EEE77A264BD3ED007AB4EEE77AF1EE12
:101A400010FA19D53B6807EE903AB8EEE77A204BCA
:101A5000D3ED007AB4EEE77AF1EE10FA0CDD012254
:101A60004FF480511B4800F092FD01224FF4804159
:101A7000184800F08CFD27E07B6807EE903AB8EE3E
:101A8000E77A134BD3ED007AB4EEE77AF1EE10FA71
:101A900006DD01224FF480510E4800F078FD13E07E
:101AA0003B6807EE903AB8EEE77A094BD3ED007A3F
:101AB000B4EEE77AF1EE10FA00D405E001224FF41B
:101AC0008041044800F063FD00BF0837BD4680BD7B
:101AD00030070020000C024090B585B002AF00F046
:101AE00054FA00F03BFA00F0B5F900F013FABD4BE0
:101AF0004FF4FA521A80BB4BBB4A9A60B94BBB4AAF
:101B00005A60B84B01229A81B64B0122DA81B5485E
:101B100001F03AF90123009300234FF40062B44925
:101B2000B44800F0D3FA00233B600121B24800F032
:101B300069FF0121B14800F010FD0346002B22D0BF
:101B400000BF0121AD4800F008FD0346002BF8D18D
:101B5000AB4B1B78012B09D1A94B02221A70012231
:101B60004FF40051A74800F012FD0CE0A44B1B7885
:101B7000022B08D1A24B01221A7000224FF400510F
:101B8000A04800F004FDA04B1B68002B37D00023B9
:101B90007B6013E09D4A7B6832F813103B68DA00E3
:101BA0007B68134407EE901AF8EE677A984A9B0018
:101BB0001344C3ED007A7B6801337B607B68072B9D
:101BC000E8D93B6801333B603B68B3F5807F13D9AC
:101BD00000233B608F4A8E498648FFF7E4FC4FF4B0
:101BE00000628D498B4800F06AFB8C4B8C4A4FF4A5
:101BF00000618C4801F016F8834B00221A60884B74
:101C0000D3ED007A9FED887AF4EEC77AF1EE10FA00
:101C100010D5864B4FF000021A6000224FF480511D
:101C2000784800F0B4FC00224FF48041754800F081
:101C3000AEFC7EE7794B1B680133184601F03AFC95
:101C40004FF000027A4B01F0AFFC03460C461846F9
:101C500021464FF00002774B01F0D0FD03460C46C1
:101C6000184621464FF00002724B01F0C7FD0346B3
:101C70000C461846214601F0C9FE02466B4B1A601D
:101C800000224FF480515F4800F081FC00224FF4A5
:101C900080415C4800F07BFC594B1B78022B09D13A
:101CA000624B93ED007AF0EE006AC7EE267A5F4B46
:101CB000C3ED007A5D4BD3ED007A9FED5F7AF4EED1
:101CC000C77AF1EE10FA10DB584BD3ED007A9FED96
:101CD0005B7AF4EEC77AF1EE10FA06D54FF4A571EF
:101CE0004FF4A470FFF79CFE7BE0504BD3ED007ADD
:101CF0009FED537AF4EEC77AF1EE10FA0EDB4B4B00
:101D0000D3ED007A9FED4C7AF4EEC77AF1EE10FA3B
:101D100004D5F821F420FFF783FE62E0434BD3EDB6
:101D2000007A9FED487AF4EEC77AF1EE10FA0EDBF6
:101D30003E4BD3ED007A9FED427AF4EEC77AF1EE96
:101D400010FA04D5C721C320FFF76AFE49E0374BDC
:101D5000D3ED007A9FED3C7AF4EEC77AF1EE10FAFB
:101D60000EDB324BD3ED007A9FED367AF4EEC77A74
:101D7000F1EE10FA04D594219020FFF751FE30E0E7
:101D80002A4BD3ED007A9FED317AF4EEC77AF1EE6B
:101D900010FA0EDB254BD3ED007A9FED2B7AF4EE93
:101DA000C77AF1EE10FA04D572216D20FFF738FEE4
:101DB00017E01E4BD3ED007A9FED257AF4EEC77A3B
:101DC000F1EE10FA0DDB194BD3ED007A9FED1F7A7F
:101DD000F4EEC77AF1EE10FA03D553215120FFF744
:101DE0001FFEA6E69887002000008C4200007A447F
:101DF000D0C700208047002000380040000002408B
:101E000000000020000C024038070020E4C700203A
:101E1000D08700209847002080070020F4C70020CA
:101E2000CC870020840700208096984A3007002045
:101E300000404F400000104000008C430000C843A9
:101E400000005C4300002543000002430000BE4246
:101E500000008C4280B582B000AF4FF480633B60DD
:101E600002233B710023BB710023FB7101237B71B3
:101E70003B461946234800F0E2FA08233B60022360
:101E80003B710023BB710023FB7101237B713B4637
:101E900019461D4800F0D3FA05220A21194800F01E
:101EA0008EFB05220321184800F089FB0121082040
:101EB00000F08CF84FF4E0433B6001233B710023BA
:101EC000BB7103237B710023FB713B4619460F480E
:101ED00000F0B5FA0121012000F078F801233B6001
:101EE00000233B710023BB7103237B710223FB7131
:101EF0003B461946064800F0A2FA00BF0837BD4627
:101F000080BD00BF0004024000080240000C0240F7
:101F10000000024080B584B000AF0F4800F062FCC2
:101F20004FF47A53BB6020237B800023BB800823BF
:101F3000BB814FF440733B800023FB803B46194636
:101F4000054800F089FC01226021034800F087FD6C
:101F500000BF1037BD4680BD0038004080B582B05C
:101F600000AF4FF4C06000F0E7FD24233B71012374
:101F7000FB7100237B710123BB713B1D184600F0F0
:101F8000EFFD00BF0837BD4680BD80B500AF012121
:101F900041F2060000F01AF801214FF4804000F0F1
:101FA00035F8012000F002F800BF80BD80B483B096
:101FB00000AF0346FB71044AFB79136000BF0C3786
:101FC000BD465DF8047B70476800474280B483B02B
:101FD00000AF78600B46FB70FB78002B06D00A4BF5
:101FE0001A6B09497B6813430B6306E0064B1A6BB7
:101FF0007B68DB43044913400B6300BF0C37BD46CD
:102000005DF8047B704700BF0038024080B483B0A5
:1020100000AF78600B46FB70FB78002B06D00A4BB4
:102020001A6C09497B6813430B6406E0064B1A6C73
:102030007B68DB43044913400B6400BF0C37BD468B
:102040005DF8047B704700BF0038024080B483B065
:1020500000AF78600B46FB70FB78002B06D00A4B74
:102060001A6A09497B6813430B6206E0064B1A6A39
:102070007B68DB43044913400B6200BF0C37BD464D
:102080005DF8047B704700BF0038024080B483B025
:1020900000AF78600B46FB70FB78002B06D00A4B34
:1020A0005A6A09497B6813434B6206E0064B5A6A39
:1020B0007B68DB43044913404B6200BF0C37BD46CD
:1020C0005DF8047B704700BF0038024080B586B0E1
:1020D00000AFF860B9607A603B600023FB757B68F5
:1020E0009BB21A46FB681A607B689BB25B089AB287
:1020F000FB689A80FB68224ADA60FB68214A1A6111
:102100003B68DAB2FB689A713B6ADAB2FB68DA7153
:10211000FB681B68B3F5007F09D0B3F5006F02D0F0
:10212000802B08D00BE0FB6801229A600AE0FB6874
:1021300004229A6006E0FB6810229A6002E0FF2306
:10214000FB7500BFFB68BA685A61FB689B79002B7E
:1021500008D0FB685869FB6899880023012200F0C9
:1021600099FD07E0FB685869FB6899880023002205
:1021700000F090FD97F9173018461837BD4680BD1E
:10218000C4410008C461000880B400AF00BFBD4670
:102190005DF8047B704780B400AFFEE780B400AF09
:1021A000FEE780B400AFFEE780B400AFFEE780B486
:1021B00000AF00BFBD465DF8047B704780B400AF40
:1021C00000BFBD465DF8047B704780B400AF00BF20
:1021D000BD465DF8047B704780B400AF00BFBD46CC
:1021E0005DF8047B7047000080B582B000AF6021CD
:1021F0001D4800F065FC0346002B30D01A4800F063
:1022000021FC0346FB80194B1B685A1C17490A60C6
:10221000FA88D1B2164AD154FB881B0A9BB25AB233
:10222000FB881B025BB2134358B2104B1B685A1C4D
:102230000E490A60C1B20E4AD1540C4B1B683F2BA9
:102240000DD90A4B00221A606423BB80BA88094B5F
:102250000949074800F01CFE084B01221A6000BF24
:102260000837BD4680BD00BF00380040340700205D
:102270004007002098870020E4C70020380700208E
:1022800080B582B000AF87ED010A3860D7ED017AE2
:10229000F5EEC07AF1EE10FA07DD786800F06AFF1B
:1022A00002463B681A60002305E03B684FF00002DD
:1022B0001A604FF0FF3318460837BD4680BD80B521
:1022C00088B000AFF860B9607A607B689B08FB61FA
:1022D00082E0FB681A1DFA601B68BB61FB681A1D6F
:1022E000FA601B687B6197ED067AD7ED067A27EED8
:1022F000277AD7ED056AD7ED057A66EEA77A77EEED
:10230000277ABB681A1DBA601846B0EE670AFFF755
:10231000B7FFFB681A1DFA601B68BB61FB681A1DDA
:10232000FA601B687B6197ED067AD7ED067A27EE97
:10233000277AD7ED056AD7ED057A66EEA77A77EEAC
:10234000277ABB681A1DBA601846B0EE670AFFF715
:1023500097FFFB681A1DFA601B68BB61FB681A1DBA
:10236000FA601B687B6197ED067AD7ED067A27EE57
:10237000277AD7ED056AD7ED057A66EEA77A77EE6C
:10238000277ABB681A1DBA601846B0EE670AFFF7D5
:1023900077FFFB681A1DFA601B68BB61FB681A1D9A
:1023A000FA601B687B6197ED067AD7ED067A27EE17
:1023B000277AD7ED056AD7ED057A66EEA77A77EE2C
:1023C000277ABB681A1DBA601846B0EE670AFFF795
:1023D00057FFFB69013BFB61FB69002B7FF479AF81
:1023E0007B6803F00303FB6122E0FB681A1DFA60BF
:1023F0001B68BB61FB681A1DFA601B687B6197ED67
:10240000067AD7ED067A27EE277AD7ED056AD7ED5B
:10241000057A66EEA77A77EE277ABB681A1DBA604E
:102420001846B0EE670AFFF72BFFFB69013BFB6123
:10243000FB69002BD9D100BF2037BD4680BD80B4D9
:1024400087B000AF7860396000237B6100233B6177
:102450000023FB6000237B6176E001227B6902FAA6
:1024600003F33B613B681B683A691340FB60FA6801
:102470003B699A4265D17B681A687B695B000321DE
:1024800001FA03F3DB431A407B681A607B681A6821
:102490003B681B7919467B695B0001FA03F31A4319
:1024A0007B681A603B681B79012B03D03B681B7962
:1024B000022B2ED17B689A687B695B00032101FAAD
:1024C00003F3DB431A407B689A607B689A683B6839
:1024D0005B7919467B695B0001FA03F31A437B6859
:1024E0009A607B685A687B699BB2194601238B40CE
:1024F000DB431A407B685A607B685B683A68927974
:1025000011467A6992B201FA02F292B21A437B68DA
:102510005A607B68DA687B699BB25B00032101FA31
:1025200003F3DB431A407B68DA607B68DA683B6858
:10253000DB7919467B695B0001FA03F31A437B6878
:10254000DA607B6901337B617B690F2B85D900BF22
:102550001C37BD465DF8047B704780B485B000AF82
:1025600078600B467B800023FB737B681A697B884D
:102570001340002B02D00123FB7301E00023FB7307
:10258000FB7B18461437BD465DF8047B704780B46A
:1025900083B000AF78600B467B8013467B707B78FE
:1025A000002B03D07B687A881A8302E07B687A88E4
:1025B0005A8300BF0C37BD465DF8047B704780B47A
:1025C00085B000AF78600B467B8013467B7000239C
:1025D000FB600023BB607A787B8803F007039B00D5
:1025E00002FA03F3FB607B88DB089BB21A467B6828
:1025F000083253F822207B8803F007039B000F2149
:1026000001FA03F3DB437988C90889B2084602EA74
:1026100003017B6800F1080243F822107B88DB0885
:102620009BB21A467B68083253F82230FA6813438B
:10263000BB607B88DB089BB21A467B680832B968AE
:1026400043F8221000BF1437BD465DF8047B704785
:1026500080B500AF164BD3F88830154A43F47003A9
:10266000C2F88830134B1B68124A43F00103136011
:10267000104B00229A600F4B1B680E4A23F08473A4
:1026800023F4803313600B4B0B4A5A60094B1B68D1
:10269000084A23F480231360064B0022DA6000F01E
:1026A0000DF8034B4FF000629A6000BF80BD00BF81
:1026B00000ED00E0003802401030002480B483B008
:1026C00000AF00237B6000233B60414B1B68404A06
:1026D00043F4803313603E4B1B6803F400333B60CC
:1026E0007B6801337B603B68002B03D17B68B3F5CB
:1026F000A06FF0D1364B1B6803F40033002B02D0DF
:1027000001233B6001E000233B603B68012B42D189
:102710002F4B1B6C2E4A43F0805313642D4B1B68C8
:102720002C4A43F480431360294B294A9B689360E9
:10273000274B9B68264A43F400439360244B9B68D5
:10274000234A43F4A0539360214B234A5A60204B01
:102750001B681F4A43F08073136000BF1C4B1B684B
:1027600003F00073002BF9D01C4B40F205621A6095
:10277000174B9B68164A23F003039360144B9B6826
:10278000134A43F00203936000BF114B9B6803F0B0
:102790000C03082BF9D10E4B9B680D4A23F4000360
:1027A00093600B4B0E4AC3F88420094B1B68084A00
:1027B00043F08063136000BF054B1B6803F00063A8
:1027C000002BF9D000BF0C37BD465DF8047B704785
:1027D000003802400070004008544007003C0240AE
:1027E0008040003080B582B000AF78607B68174AC7
:1027F00093420AD101214FF48050FFF747FC00219A
:102800004FF48050FFF742FC1CE07B68104A934273
:102810000AD101214FF48040FFF718FC00214FF44A
:102820008040FFF713FC0DE07B680A4A934209D110
:1028300001214FF40040FFF709FC00214FF4004054
:10284000FFF704FC00BF0837BD4680BD00300140E3
:1028500000380040003C004080B48BB000AF78608E
:10286000396000237B830223FB840023BB84012384
:102870007B840023FB6100237B6100233B610023F9
:10288000FB600023BB607B689B8B9BB223F47B6364
:1028900023F00F039AB27B689A837B6802221A8422
:1028A0007B689B8B7B833B689B68022B04D1002356
:1028B000BB840223FB846DE03B689B88002B02D124
:1028C00001237B8401E002237B844B4B9B6803F450
:1028D0000003002B05D0484B9B68474A23F40003B4
:1028E0009360454BD3F884309B09C3F30803FB6026
:1028F000414BD3F884301B0F03F00703BB603E4B02
:102900005B6803F03F033B613C4A3B69B2FBF3F376
:10291000FA6802FB03F2BB68B2FBF3F37B613B682E
:10292000DB88B3F5007F0FD17B691A0A13469B0041
:1029300013445B001A463B689B68B2FBF3F39BB2FF
:1029400005339BB2FB6112E07B8C5B011A467B690D
:10295000B3FBF2F213469B0013445B001A463B683C
:102960009B68B2FBF3F39BB205339BB2FB61FB693F
:10297000234AA2FB0323DB08FB61FB699BB203F044
:102980000103BB84BB8CFA69D31A5B08FB84BB8C44
:102990001B02BB84FB8C012B02D9FB8CFF2B03D9C0
:1029A0000223FB840023BB843B68DA88BB8C13437F
:1029B0009AB2FB8C13439AB27B681A843B681A88DC
:1029C0003B6859883B6898883B689B8903439BB266
:1029D0000B439BB213439AB27B8B13439BB243F4DA
:1029E00000637B837B687A8B9A8300BF2C37BD465C
:1029F0005DF8047B704700BF0038024000127A0087
:102A0000CDCCCCCC80B483B000AF78600B46FB70EB
:102A1000FB78002B08D07B689B8B9BB243F48063D0
:102A20009AB27B689A8307E07B689B8B9BB223F406
:102A300080639AB27B689A8300BF0C37BD465DF80D
:102A4000047B704780B483B000AF78607B689B895B
:102A50009BB218460C37BD465DF8047B704780B4C6
:102A600085B000AF78600B46FB701346BB70002347
:102A7000FB810023BB81FB781B09DBB2FB81FB8957
:102A8000012202FA03F3BB81BB78002B08D07B68DC
:102A90009B889AB2BB8913439AB27B689A8009E0FB
:102AA0007B689B889AB2BB89DB439BB213409AB286
:102AB0007B689A8000BF1437BD465DF8047B704781
:102AC00080B485B000AF78600B46FB700023FB73C9
:102AD0000023BB8100237B8100233B81FB7803F033
:102AE0000F03012202FA03F3BB81FB781B09DBB25F
:102AF0007B817B89012202FA03F37B817B689B88BF
:102B00009AB27B8913403B817B681B899AB2BB894F
:102B100013409BB2002B05D03B89002B02D0012330
:102B2000FB7301E00023FB73FB7B18461437BD46A3
:102B30005DF8047B7047000080B483B000AF78601C
:102B4000064A7B6843F0BF6343F40033D36000BFA1
:102B50000C37BD465DF8047B704700BF00ED00E018
:102B600080B485B000AF78600023FB730023BB7393
:102B70000F237B737B68DB78002B39D0274BDB6816
:102B8000DB431B0ADBB203F00703FB73FB7BC3F1E0
:102B90000403BB737A7BFB7B42FA03F37B737B6892
:102BA0005B781A46BB7B02FA03F3FB737B689A7867
:102BB0007B7B1340DAB2FB7B1343FB73FB7B1B0174
:102BC000FB73174A7B681B781344FA7B83F8002356
:102BD0007B681B7803F01F0311497A681278520949
:102BE000D2B21046012202FA03F341F820300FE07E
:102BF0007B681B7803F01F0309497A681278520931
:102C0000D2B2104601229A4000F1200341F823205D
:102C100000BF1437BD465DF8047B704700ED00E04F
:102C200000E100E080B489B000AFF860B9607A607C
:102C30003B6000237B61FB681A1DFA601B68FB6127
:102C4000BB68013BBB61FB681A1DFA601B683B61F6
:102C500097ED077AD7ED047AB4EEE77AF1EE10FA41
:102C600005D53B69FB61BA68BB69D31A7B61BB6957
:102C7000013BBB61BB69002BE5D17B68FA691A6037
:102C80003B687A691A6000BF2437BD465DF8047B53
:102C90007047000080B485B000AF786008461146E8
:102CA0001A4603467B800B467B7013463B7000231D
:102CB000FB737B687A881A807B682D4A5A607B6830
:102CC0007A789A707B683A78DA707B681B88402B38
:102CD00026D0402B02DC102B30D03DE0B3F5807FB6
:102CE00010D0B3F5806F37D17B6801229A817B6861
:102CF0000122DA817B681F4A9A607B684FF06A5232
:102D00001A612CE07B6804229A817B680422DA81B4
:102D10007B68194A9A607B684FF06E521A611EE018
:102D20007B6810229A817B681022DA817B68134AC3
:102D30009A607B684FF072521A6110E07B68402203
:102D40009A817B684022DA817B680D4A9A607B68B1
:102D50004FF076521A6102E0FF23FB7300BF97F930
:102D60000F3018461437BD465DF8047B704700BF2E
:102D7000C4810008443E00084A3E0008623E000844
:102D8000C23E0008000000002DE9F84F3C4A3D4BD0
:102D900005461A601B683C4A0026934211D13B4A03
:102DA000476800F110041360E6600661A660666083
:102DB000A661666126613846002101F00BF808B172
:102DC00026E0FEE738464FF0874100F06FFE00F046
:102DD00093FB80463846894600F08EFB06462888DD
:102DE0000F4600F077FB24A3D3E9002300F006FD93
:102DF00002460B463046394600F020FA02460B46A2
:102E00004046494600F0FAFC00F0E0FDA08300E0F7
:102E1000A683AF680021384600F0DCFF10BB2E8887
:102E2000300200F057FB824638468B4600F064FBC8
:102E300011A3D3E9002300F0B7FB80463046894652
:102E400000F048FB02460B464046494600F0F6F9C2
:102E500002460B465046594600F0D0FC00F0B6FD45
:102E6000E08301E00023E3832A884FF47A73B2FB06
:102E7000F3F32384BDE8F88F1F85EB51B81E19408A
:102E8000C2A507F400300240CDB5E8B53C070020EC
:102E90002DE9F04FA1B01F92B04A1E911168B04ABF
:102EA000914200D0FEE703F11002546911690B94BE
:102EB000D468089191680694D48B05919989956995
:102EC0000D9406244C430995958B4FEA81094FEAEE
:102ED000C10B0C954D0005EB010809EB010A189494
:102EE000C1EB0B0C00241F6956681295CDF8588071
:102EF000CDF84C90CDF85CA0CDF854B0CDF864C0BE
:102F000007940391019313E190F80080DFF860A229
:102F1000039D1AF80840DDF8489036190A9610F813
:102F200005C0904E1AF80C4016F80850169904EB9C
:102F30004504E7190E9710F809408B4F1AF8045012
:102F400017F8088010F801B0454416F80C8017F8FF
:102F50000C9005EB48051AF80B8016F804C0C14424
:102F600009EB4C0C139BCDF83CC010F803903C5D72
:102F70001AF809C016F80B80644404EB48080F9C4B
:102F8000CDF840804444DDF85C801C9410F808C003
:102F900017F80B801AF80C401899444416F8098069
:102FA00017F8099004EB480404EB050BCDF874B056
:102FB00010F801801AF808B0D94416F80CB009EBE3
:102FC0004B0BCDF844B00E9B17F80CC05B44DDF8FA
:102FD00064B01B9310F80B9016F808B01AF809A00B
:102FE0000F99D4440CEB4B0BDDF828C04FEA051ABF
:102FF000DC44CDF868C0C5EB0A0A17F808C04FF0EA
:103000000A0808FB01AA16F80960119BCDF850B018
:103010009A44DDF840B00CEB460604EB440CE24465
:1030200017F809704FF0060909FB0BAA06990A9BCD
:103030008A444FF01C0C0CFB03AA0E994FF0150BA1
:103040000BFB01AA1D9BCDF828A04FF02E0A0AFB0E
:1030500003FA1C99302303FB01AA05991A9B5144DA
:103060004FF0240A0AFB03131B99CA440AFB0131DF
:1030700006910F9905EB450509FB015925012C1B0C
:10308000109BA14408FB0399149C119D0CFB04990F
:103090000BFB05990E990A9B0D9C49440591A3F5DC
:1030A000003A64B1089D0B990D9B6C1A54445C4323
:1030B00048BFFF342412CDF82CA00894A2460C9CE3
:1030C00064B1099DC4F580746C430C9901FB0A44FA
:1030D000002CB8BFFF3424120994A2461F9B03FBA7
:1030E0000AFABAF1000F04DD0AF1080A4FEA2A1AB7
:1030F00006E0BAF1080C48BF0AF1070C4FEA2C1A97
:10310000019DDDF81C80EC8947F6BC7C04FB08F4CB
:10311000164DE245B8BFD4461E99159BAC45A8BFD5
:10312000654608F1010821F81450C018CDF81C803C
:10313000148C079DA542FFF6E7AE019B05991F6120
:10314000069B9160D360089D0B99099B56601561A1
:1031500051619361204621B0BDE8F08F3C0700200B
:10316000CDB5E8B501010020010000204480FFFF3B
:103170000102002010B52DED028B8AB008EE100A76
:1031800000F04CF8234B93F90040631C09D0B4EED7
:10319000488AF1EE10FA04D6B5EEC08AF1EE10FAC4
:1031A00003D40AB0BDEC028B10BD01231A4A009370
:1031B00018EE100A00230192089300F09DF90022F6
:1031C000CDE90401CDE902010023ACB11046194656
:1031D00000F014FB022CCDE906010FD100F02CFE0B
:1031E00021230360089B7BB9DDE9060100F00EFC9A
:1031F0000AB0BDEC028B10BDCDE90623684600F095
:1032000015F80028EED1E9E700F016FE089B0360F0
:10321000EAE700BF01030020C4A1000807EE900AFE
:10322000F1EEE77A17EE900A704700BF0020704772
:1032300081F0004102E000BF83F0004330B54FEA67
:1032400041044FEA430594EA050F08BF90EA020FD4
:103250001FBF54EA000C55EA020C7FEA645C7FEA67
:10326000655C00F0E2804FEA5454D4EB5555B8BF8A
:103270006D420CDD2C4480EA020281EA030382EAFB
:10328000000083EA010180EA020281EA0303362D8D
:1032900088BF30BD11F0004F4FEA01314FF4801C60
:1032A0004CEA113102D0404261EB410113F0004F72
:1032B0004FEA03334CEA133302D0524263EB430329
:1032C00094EA050F00F0A780A4F10104D5F1200EC7
:1032D0000DDB02FA0EFC22FA05F2801841F1000122
:1032E00003FA0EF2801843FA05F359410EE0A5F1F6
:1032F00020050EF1200E012A03FA0EFC28BF4CF027
:10330000020C43FA05F3C01851EBE37101F00045DC
:1033100007D54FF0000EDCF1000C7EEB00006EEBE9
:103320000101B1F5801F1BD3B1F5001F0CD3490873
:103330005FEA30004FEA3C0C04F101044FEA4452CA
:1033400012F5800F80F09A80BCF1004F08BF5FEA51
:10335000500C50F1000041EB045141EA050130BD31
:103360005FEA4C0C404141EB010111F4801FA4F1D4
:103370000104E9D191F0000F04BF01460020B1FA29
:1033800081F308BF2033A3F10B03B3F120020CDA61
:103390000C3208DD02F1140CC2F10C0201FA0CF03F
:1033A00021FA02F10CE002F11402D8BFC2F1200CA4
:1033B00001FA02F120FA0CFCDCBF41EA0C0190405A
:1033C000E41AA2BF01EB0451294330BD6FEA0404A3
:1033D0001F3C1CDA0C340EDC04F11404C4F120028E
:1033E00020FA04F001FA02F340EA030021FA04F3A0
:1033F00045EA030130BDC4F10C04C4F1200220FAF7
:1034000002F001FA04F340EA0300294630BD21FA34
:1034100004F0294630BD94F0000F83F4801306BFFA
:1034200081F480110134013D4EE77FEA645C18BFEE
:103430007FEA655C29D094EA050F08BF90EA020F85
:1034400005D054EA000C04BF1946104630BD91EA7D
:10345000030F1EBF0021002030BD5FEA545C05D180
:103460004000494128BF41F0004130BD14F58004BF
:103470003CBF01F5801130BD01F0004545F0FE4133
:1034800041F470014FF0000030BD7FEA645C1ABF68
:10349000194610467FEA655C1CBF0B46024650EA9F
:1034A000013406BF52EA033591EA030F41F40021CB
:1034B00030BD00BF90F0000F04BF0021704730B551
:1034C0004FF4806404F132044FF000054FF0000126
:1034D00050E700BF90F0000F04BF0021704730B5E7
:1034E0004FF4806404F1320410F0004548BF4042BC
:1034F0004FF000013EE700BF42004FEAE2014FEA11
:1035000031014FEA02701FBF12F07F4393F07F4FEB
:1035100081F06051704732F07F4208BF704793F0EE
:103520007F4F04BF41F40021704730B54FF4607401
:1035300001F0004521F000411CE700BF50EA010204
:1035400008BF704730B54FF000050AE050EA0102AD
:1035500008BF704730B511F0004502D5404261EB1D
:1035600041014FF4806404F132045FEA915C3FF45E
:10357000D8AE4FF003025FEADC0C18BF03325FEAFB
:10358000DC0C18BF033202EBDC02C2F1200300FAAC
:1035900003FC20FA02F001FA03FE40EA0E0021FAD1
:1035A00002F11444BDE600BF70B54FF0FF0C4CF4BF
:1035B000E06C1CEA11541DBF1CEA135594EA0C0F71
:1035C00095EA0C0F00F0DEF82C4481EA030621EAAC
:1035D0004C5123EA4C5350EA013518BF52EA0335E7
:1035E00041F4801143F4801338D0A0FB02CE4FF099
:1035F0000005E1FB02E506F00042E0FB03E54FF0C9
:103600000006E1FB03569CF0000F18BF4EF0010EC0
:10361000A4F1FF04B6F5007F64F5407404D25FEABC
:103620004E0E6D4146EB060642EAC62141EA55516F
:103630004FEAC52040EA5E504FEACE2EB4F1FD0CB1
:1036400088BFBCF5E06F1ED8BEF1004F08BF5FEA2F
:10365000500E50F1000041EB045170BD06F00046E1
:1036600046EA010140EA020081EA0301B4EB5C048E
:10367000C2BFD4EB0C0541EA045170BD41F4801186
:103680004FF0000E013C00F3AB8014F1360FDEBFAB
:10369000002001F0004170BDC4F10004203C35DA87
:1036A0000C341BDC04F11404C4F1200500FA05F30A
:1036B00020FA04F001FA05F240EA020001F00042AB
:1036C00021F0004110EBD37021FA04F642EB060121
:1036D0005EEA430E08BF20EAD37070BDC4F10C044B
:1036E000C4F1200500FA04F320FA05F001FA04F20F
:1036F00040EA020001F0004110EBD37041F10001FB
:103700005EEA430E08BF20EAD37070BDC4F1200505
:1037100000FA05F24EEA020E20FA04F301FA05F26D
:1037200043EA020321FA04F001F0004121FA04F215
:1037300020EA020000EBD3705EEA430E08BF20EAE5
:10374000D37070BD94F0000F0FD101F0004640001F
:1037500041EB010111F4801F08BF013CF7D041EAA1
:10376000060195F0000F18BF704703F000465200A5
:1037700043EB030313F4801F08BF013DF7D043EA76
:103780000603704794EA0C0F0CEA135518BF95EA2C
:103790000C0F0CD050EA410618BF52EA4306D1D1B3
:1037A00081EA030101F000414FF0000070BD50EAD2
:1037B000410606BF1046194652EA430619D094EA5C
:1037C0000C0F02D150EA013613D195EA0C0F05D146
:1037D00052EA03361CBF104619460AD181EA03019A
:1037E00001F0004141F0FE4141F470014FF0000052
:1037F00070BD41F0FE4141F4780170BD70B54FF0ED
:10380000FF0C4CF4E06C1CEA11541DBF1CEA13556C
:1038100094EA0C0F95EA0C0F00F0A7F8A4EB05044E
:1038200081EA030E52EA03354FEA013100F0888045
:103830004FEA03334FF0805545EA131343EA12630E
:103840004FEA022245EA111545EA10654FEA0026C3
:103850000EF000419D4208BF964244F1FD0404F57C
:10386000407402D25B084FEA3202B61A65EB0305D8
:103870005B084FEA32024FF480104FF4002CB6EB95
:10388000020E75EB030E22BFB61A754640EA0C0015
:103890005B084FEA3202B6EB020E75EB030E22BF55
:1038A000B61A754640EA5C005B084FEA3202B6EB96
:1038B000020E75EB030E22BFB61A754640EA9C0055
:1038C0005B084FEA3202B6EB020E75EB030E22BF25
:1038D000B61A754640EADC0055EA060E18D04FEAE3
:1038E000051545EA16754FEA06164FEAC30343EA83
:1038F00052734FEAC2025FEA1C1CC0D111F4801F50
:103900000BD141EA00014FF000004FF0004CB6E748
:1039100011F4801F04BF01430020B4F1FD0C88BFE7
:10392000BCF5E06F3FF6AFAEB5EB030C04BFB6EBF2
:10393000020C5FEA500C50F1000041EB045170BDE5
:103940000EF0004E4EEA113114EB5C04C2BFD4EB12
:103950000C0541EA045170BD41F480114FF0000E96
:10396000013C90E645EA060E8DE60CEA135594EA12
:103970000C0F08BF95EA0C0F3FF43BAF94EA0C0F15
:103980000AD150EA01347FF434AF95EA0C0F7FF48A
:1039900025AF104619462CE795EA0C0F06D152EADE
:1039A00003353FF4FDAE1046194622E750EA4106C2
:1039B00018BF52EA43067FF4C5AE50EA41047FF4D3
:1039C0000DAF52EA43057FF4EBAE12E74A0011D285
:1039D00012F5001211D20DD56FF47873B3EB625269
:1039E0000ED44FEAC12343F0004343EA505323FA75
:1039F00002F070474FF00000704750EA013002D1EA
:103A00004FF0FF3070474FF0000070474FEA41021F
:103A1000B2F1E04324BFB3F5001CDCF1FE5C0DD92C
:103A200001F0004C4FEAC0024CEA5070B2F1004F76
:103A300040EB830008BF20F00100704711F0804F79
:103A400021D113F13872BCBF01F00040704741F43E
:103A500080114FEA5252C2F11802C2F1200C10FA42
:103A60000CF320FA02F018BF40F001004FEAC12326
:103A70004FEAD32303FA0CFC40EA0C0023FA02F3CA
:103A80004FEA4303CCE77FEA625307D150EA0133A0
:103A90001EBF4FF0FE4040F44000704701F0004070
:103AA00040F0FE4040F40000704700BF4FF0FF0CB4
:103AB0001CEAD0521EBF1CEAD15392EA0C0F93EAC3
:103AC0000C0F6FD01A4480EA010C400218BF5FEA65
:103AD00041211ED04FF0006343EA501043EA5111D8
:103AE000A0FB01310CF00040B1F5000F3EBF4900D2
:103AF00041EAD3715B0040EA010062F17F02FD2AD6
:103B00001DD8B3F1004F40EBC25008BF20F00100B8
:103B1000704790F0000F0CF0004C08BF49024CEACF
:103B2000502040EA51207F3AC2BFD2F1FF0340EA61
:103B3000C250704740F400004FF00003013A5DDCD2
:103B400012F1190FDCBF00F000407047C2F1000213
:103B5000410021FA02F1C2F1200200FA02FC5FEA00
:103B6000310040F1000053EA4C0308BF20EADC704A
:103B7000704792F0000F00F0004C02BF400010F4BC
:103B8000000F013AF9D040EA0C0093F0000F01F069
:103B9000004C02BF490011F4000F013BF9D041EA8B
:103BA0000C018FE70CEAD15392EA0C0F18BF93EA8D
:103BB0000C0F0AD030F0004C18BF31F0004CD8D1B7
:103BC00080EA010000F00040704790F0000F17BF3E
:103BD00090F0004F084691F0000F91F0004F14D084
:103BE00092EA0C0F01D142020FD193EA0C0F03D1DC
:103BF0004B0218BF084608D180EA010000F00040DF
:103C000040F0FE4040F40000704740F0FE4040F4B9
:103C1000400070474FF0FF0C1CEAD0521EBF1CEA58
:103C2000D15392EA0C0F93EA0C0F69D0A2EB030276
:103C300080EA010C49024FEA402037D04FF0805310
:103C400043EA111143EA10130CF000408B4238BFD5
:103C50005B0042F17D024FF4000C8B4224BF5B1AE3
:103C600040EA0C00B3EB510F24BFA3EB510340EA31
:103C70005C00B3EB910F24BFA3EB910340EA9C00DF
:103C8000B3EBD10F24BFA3EBD10340EADC001B014F
:103C900018BF5FEA1C1CE0D1FD2A3FF650AF8B42F3
:103CA00040EBC25008BF20F0010070470CF0004C00
:103CB0004CEA50207F32C2BFD2F1FF0340EAC2502B
:103CC000704740F400004FF00003013A37E792F0EC
:103CD000000F00F0004C02BF400010F4000F013A4A
:103CE000F9D040EA0C0093F0000F01F0004C02BF45
:103CF000490011F4000F013BF9D041EA0C0195E7AE
:103D00000CEAD15392EA0C0F08D142027FF47DAF46
:103D100093EA0C0F7FF470AF084676E793EA0C0F36
:103D200004D14B023FF44CAF08466EE730F0004C34
:103D300018BF31F0004CCAD130F000427FF45CAFC4
:103D400031F000437FF43CAF5FE700BF4FF0FF3C32
:103D500006E000BF4FF0010C02E000BF4FF0010C85
:103D60004DF804CD4FEA40024FEA41037FEA226C4E
:103D700018BF7FEA236C11D001B052EA530C18BF70
:103D800090EA010F58BFB2EB030088BFC81738BFD5
:103D90006FEAE17018BF40F0010070477FEA226CC3
:103DA00002D15FEA402C05D17FEA236CE4D15FEABF
:103DB000412CE1D05DF8040B704700BF84460846F3
:103DC0006146FFE70FB5FFF7C9FF002848BF10F1B4
:103DD000000F0FBD4DF808EDFFF7F4FF0CBF0120F9
:103DE00000205DF808FB00BF4DF808EDFFF7EAFF83
:103DF00034BF012000205DF808FB00BF4DF808ED3E
:103E0000FFF7E0FF94BF012000205DF808FB00BF32
:103E10004DF808EDFFF7D2FF94BF012000205DF8B8
:103E200008FB00BF4DF808EDFFF7C8FF34BF0120C5
:103E300000205DF808FB00BF014B1868704700BF09
:103E40000403002000018000800140004001C00008
:103E5000C00120002001A000A00160006001E0007E
:103E6000E001100010019000900150005001D000BE
:103E7000D00130003001B000B00170007001F000DE
:103E8000F001080008018800880148004801C800C6
:103E9000C80128002801A800A80168006801E800FE
:103EA000E801180018019800980158005801D8003E
:103EB000D80138003801B800B80178007801F8005E
:103EC000F801040004018400840144004401C4009A
:103ED000C40124002401A400A40164006401E400DE
:103EE000E401140014019400940154005401D4001E
:103EF000D40134003401B400B40174007401F4003E
:103F0000F4010C000C018C008C014C004C01CC0025
:103F1000CC012C002C01AC00AC016C006C01EC005D
:103F2000EC011C001C019C009C015C005C01DC009D
:103F3000DC013C003C01BC00BC017C007C01FC00BD
:103F4000FC01020002018200820142004201C20023
:103F5000C20122002201A200A20162006201E2006D
:103F6000E201120012019200920152005201D200AD
:103F7000D20132003201B200B20172007201F200CD
:103F8000F2010A000A018A008A014A004A01CA00B5
:103F9000CA012A002A01AA00AA016A006A01EA00ED
:103FA000EA011A001A019A009A015A005A01DA002D
:103FB000DA013A003A01BA00BA017A007A01FA004D
:103FC000FA01060006018600860146004601C60089
:103FD000C60126002601A600A60166006601E600CD
:103FE000E601160016019600960156005601D6000D
:103FF000D60136003601B600B60176007601F6002D
:10400000F6010E000E018E008E014E004E01CE0014
:10401000CE012E002E01AE00AE016E006E01EE004C
:10402000EE011E001E019E009E015E005E01DE008C
:10403000DE013E003E01BE00BE017E007E01FE00AC
:10404000FE010100037F137D317B5E799877E07577
:1040500034749472FF70766FF66D826C166BB5696E
:104060005C680C67C46584644C631C62F360D05F59
:10407000B55EA05D915C885B855A885990589E57C3
:10408000B056C855E45405542B5355528351B6507D
:10409000EC4F264F644EA64DEC4C344C814BD04A2D
:1040A000234A7849D1482D488C47ED465146B845BA
:1040B00021458D44FC436C43DF425542CC4146418F
:1040C000C24040403FF0037F2074137D39E7317BCD
:1040D000949F5E7929FD98772869E0754D55347471
:1040E0004B3B9472409CFF703100766F93F5F66DF8
:1040F000E310826C3AEC166BF626B5695F655C6876
:104100005D500C672D95C46519E584643EF54C63DC
:104110004F7E1C62613CF360B3EED05F8557B55EA5
:10412000EB3BA05DA163915CE698885B5AA8855A39
:10413000DF6088597393905818139E57B8B4B056DF
:104140000B4FC85580BAE45424D105548F6E2B53BD
:10415000D06F55525AB38351F318B650A281EC4F29
:10416000A2CF264F4EE6644E1DAAA64D8B00EC4C06
:1041700010D0344C1600814BEF78D04AC423234A28
:1041800096EA784927B8D148FE772D4857168C47CC
:104190001D80ED46E5A25146E26CB845E1CC2145D3
:1041A00044B28D44FA0CFC4378CD6C43B4E4DF4256
:1041B00026445542B6DDCC41C6A346412389C240C0
:1041C000028140400000003F000000BFF036FF3E8B
:1041D000B1FFFFBEE16DFE3EC4FEFFBED3A4FD3EB7
:1041E00039FDFFBEC6DBFC3E11FBFFBEBB12FC3E31
:1041F0004AF8FFBEB249FB3EE6F4FFBEAD80FA3E90
:10420000E3F0FFBEABB7F93E43ECFFBEACEEF83EC9
:1042100005E7FFBEB225F83E29E1FFBEBD5CF73ED3
:10422000AFDAFFBECD93F63E97D3FFBEE3CAF53EAD
:10423000E2CBFFBE0002F53E8FC3FFBE2339F43E42
:104240009EBAFFBE4D70F33E0FB1FFBE7FA7F23E98
:10425000E3A6FFBEB9DEF13E189CFFBEFD15F13EA0
:10426000B190FFBE494DF03EAB84FFBE9F84EF3E50
:104270000878FFBEFFBBEE3EC76AFFBE6AF3ED3EA5
:10428000E95CFFBEDF2AED3E6D4EFFBE6162EC3E93
:10429000543FFFBEEF99EB3E9D2FFFBE89D1EA3E12
:1042A000491FFFBE3009EA3E580EFFBEE540E93E19
:1042B000C9FCFEBEA878E83E9DEAFEBE79B0E73EA6
:1042C000D4D7FEBE59E8E63E6DC4FEBE4920E63EA8
:1042D00069B0FEBE4958E53EC99BFEBE5990E43E1A
:1042E0008B86FEBE7AC8E33EB070FEBEAD00E33EF4
:1042F000385AFEBEF138E23E2343FEBE4871E13E2D
:10430000722BFEBEB2A9E03E2413FEBE2FE2DF3EBA
:1043100038FAFDBEBF1ADF3EB1E0FDBE6553DE3E9A
:104320008CC6FDBE1E8CDD3ECCABFDBEEDC4DC3EBE
:104330006E90FDBED2FDDB3E7474FDBECD36DB3E1D
:10434000DE57FDBEDF6FDA3EAC3AFDBE08A9D93EAE
:10435000DD1CFDBE49E2D83E73FEFCBEA11BD83E6B
:104360006CDFFCBE1355D73EC9BFFCBE9D8ED63E4A
:104370008A9FFCBE41C8D53EB07EFCBEFF01D53E43
:104380003A5DFCBED73BD43E283BFCBECB75D33E4A
:104390007A18FCBEDAAFD23E31F5FBBE05EAD13E5B
:1043A0004DD1FBBE4C24D13ECDACFBBEB15ED03E68
:1043B000B287FBBE3299CF3EFC61FBBED2D3CE3E6C
:1043C000AB3BFBBE900ECE3EBE14FBBE6C49CD3E59
:1043D00037EDFABE6884CC3E16C5FABE84BFCB3E2C
:1043E000599CFABEC0FACA3E0273FABE1C36CA3ED7
:1043F0001049FABE9A71C93E841EFABE3AADC83E53
:104400005EF3F9BEFBE8C73E9DC7F9BEDF24C73E99
:10441000439BF9BEE760C63E4E6EF9BE119DC53E98
:10442000C040F9BE60D9C43E9812F9BED415C43E4E
:10443000D6E3F8BE6C52C33E7BB4F8BE298FC23EB1
:104440008684F8BE0DCCC13EF853F8BE1709C13EB4
:10445000D122F8BE4846C03E10F1F7BEA083BF3E51
:10446000B7BEF7BE20C1BE3EC58BF7BEC8FEBD3E7F
:104470003A58F7BE993CBD3E1724F7BE937ABC3E2E
:104480005BEFF6BEB6B8BB3E07BAF6BE04F7BA3E5F
:104490001B84F6BE7D35BA3E974DF6BE2074B93EFC
:1044A0007A16F6BEEFB2B83EC6DEF5BEEAF1B73E0A
:1044B0007BA6F5BE1131B73E976DF5BE6670B63E70
:1044C0001D34F5BEE7AFB53E0BFAF4BE97EFB43E30
:1044D00062BFF4BE752FB43E2284F4BE816FB33E3A
:1044E0004B48F4BEBDAFB23EDD0BF4BE28F0B13E8A
:1044F000D9CEF3BEC430B13E3F91F3BE9071B03E11
:104500000E53F3BE8EB2AF3E4714F3BEBDF3AE3EC4
:10451000EBD4F2BE1D35AE3EF894F2BEB176AD3EA0
:104520007054F2BE77B8AC3E5213F2BE71FAAB3E95
:104530009FD1F1BE9E3CAB3E578FF1BE007FAA3E9D
:104540007A4CF1BE96C1A93E0809F1BE6204A93EAB
:1045500001C5F0BE6347A83E6680F0BE9B8AA73EB9
:10456000373BF0BE09CEA63E73F5EFBEAE11A63EB8
:104570001BAFEFBE8A55A53E3068EFBE9E99A43EA4
:10458000B020EFBEEBDDA33E9ED8EEBE7122A33E6F
:10459000F88FEEBE3067A23EBE46EEBE28ACA13E0E
:1045A000F2FCEDBE5BF1A03E93B2EDBEC936A03E7B
:1045B000A167EDBE717C9F3E1D1CEDBE55C29E3EA7
:1045C00007D0ECBE75089E3E5E83ECBED24E9D3E8B
:1045D0002436ECBE6B959C3E58E8EBBE42DC9B3E1D
:1045E000FB99EBBE56239B3E0C4BEBBEA96A9A3E51
:1045F0008CFBEABE3AB2993E7BABEABE0BFA983E20
:10460000D95AEABE1B42983EA709EABE6B8A973E7A
:10461000E4B7E9BEFBD2963E9165E9BECD1B963E5E
:10462000AE12E9BEDF64953E3CBFE8BE34AE943EB8
:10463000396BE8BECAF7933EA816E8BEA441933E84
:1046400087C1E7BEC08B923ED86BE7BE20D6913EB5
:104650009915E7BEC320913ECCBEE6BEAC6B903E42
:104660007167E6BED9B68F3E880FE6BE4B028F3E1D
:1046700010B7E5BE034E8E3E0B5EE5BE019A8D3E41
:104680007904E5BE46E68C3E59AAE4BED1328C3EA2
:10469000AC4FE4BEA47F8B3E73F4E3BEBFCC8A3E36
:1046A000AC98E3BE231A8A3E5A3CE3BECF67893EEC
:1046B0007BDFE2BEC4B5883E1082E2BE0204883EC3
:1046C0001A24E2BE8B52873E98C5E1BE5EA1863EAB
:1046D0008A66E1BE7CF0853EF206E1BEE63F853E9D
:1046E000CFA6E0BE9B8F843E2146E0BE9CDF833E8A
:1046F000E9E4DFBEEA2F833E2783DFBE8480823E6B
:10470000DB20DFBE6DD1813E05BEDEBEA322813E31
:10471000A65ADEBE2774803EBEF6DDBEF38B7F3E1A
:104720004D92DDBE38307E3E532DDDBE1BD57C3E26
:10473000D1C7DCBE9E7A7B3EC761DCBEC1207A3E1B
:1047400034FBDBBE86C7783E1A94DBBEEE6E773E46
:10475000792CDBBEF916763E50C4DABEA8BF743E93
:10476000A05BDABEFB68733E6AF2D9BEF412723EF9
:10477000AD88D9BE94BD703E6A1ED9BEDB686F3E5F
:10478000A1B3D8BECB146E3E5348D8BE63C16C3EB5
:104790007FDCD7BEA56E6B3E2670D7BE921C6A3EEC
:1047A0004803D7BE2ACB683EE595D6BE6E7A673EF3
:1047B000FE27D6BE5F2A663E93B9D5BEFFDA643EB9
:1047C000A44AD5BE4C8C633E31DBD4BE4A3E623E29
:1047D0003B6BD4BEF7F0603EC3FAD3BE56A45F3E37
:1047E000C789D3BE66585E3E4918D3BE2A0D5D3ECA
:1047F00049A6D2BEA0C25B3EC633D2BECB785A3EDB
:10480000C2C0D1BEAB2F593E3D4DD1BE41E7573E50
:1048100037D9D0BE8E9F563EAF64D0BE9158553E1C
:10482000A8EFCFBE4E12543E1F7ACFBEC3CC523E2D
:104830001704CFBEF287513E908DCEBEDB43503E73
:104840008916CEBE80004F3E029FCDBEE1BD4D3EDB
:10485000FD26CDBEFF7B4C3E79AECCBEDB3A4B3E57
:104860007835CCBE75FA493EF8BBCBBECEBA483ED1
:10487000FA41CBBEE87B473E7FC7CABEC23D463E3B
:10488000874CCABE5D00453E12D1C9BEBBC3433E84
:104890002155C9BEDC87423EB3D8C8BEC14C413E9B
:1048A000CA5BC8BE6B12403E65DEC7BEDAD83E3E6C
:1048B0008560C7BE0FA03D3E2AE2C6BE0A683C3EE8
:1048C0005463C6BECE303B3E03E4C5BE59FA393E02
:1048D0003964C5BEAEC4383EF5E3C4BECD8F373EA5
:1048E0003763C4BEB65B363E00E2C3BE6B28353EBE
:1048F0005160C3BEECF5333E29DEC2BE39C4323E40
:10490000895BC2BE5493313E70D8C1BE3E63303E17
:10491000E154C1BEF6332F3EDAD0C0BE7E052E3E36
:104920005C4CC0BED7D72C3E67C7BFBE01AB2B3E89
:10493000FC41BFBEFC7E2A3E1BBCBEBECB53293E03
:10494000C535BEBE6D29283EF9AEBDBEE3FF263E8D
:10495000B827BDBE2DD7253E03A0BCBE4EAF243E1A
:10496000D917BCBE4488233E3B8FBBBE1262223E99
:104970002906BBBEB73C213EA47CBABE3418203EFB
:10498000ACF2B9BE8BF41E3E4268B9BEBBD11D3E2F
:1049900065DDB8BEC6AF1C3E1652B8BEAC8E1B3E1F
:1049A00055C6B7BE6E6E1A3E233AB7BE0C4F193EBF
:1049B0007FADB6BE8830183E6C20B6BEE112173E01
:1049C000E792B5BE1AF6153EF304B5BE31DA143ED1
:1049D0008F76B4BE29BF133EBCE7B3BE01A5123E1D
:1049E0007A58B3BEBB8B113EC9C8B2BE5673103ED7
:1049F000AA38B2BED55B0F3E1DA8B1BE37450E3EEC
:104A00002217B1BE7D2F0D3EBB85B0BEA71A0C3E4E
:104A1000E6F3AFBEB7060B3EA561AFBEADF3093EF0
:104A2000F7CEAEBE8AE1083EDE3BAEBE4ED0073EBC
:104A300059A8ADBEFBBF063E6914ADBE90B0053EA1
:104A40000F80ACBE0EA2043E4AEBABBE7694033E92
:104A50001B56ABBEC987023E82C0AABE087C013E7F
:104A6000802AAABE3271003E1594A9BE91CEFE3DA9
:104A700041FDA8BE9ABCFC3D0566A8BE7EACFA3DD1
:104A800061CEA7BE3F9EF83D5636A7BEDE91F63DED
:104A9000E39DA6BE5D87F43D0A05A6BEBC7EF23D41
:104AA000CB6BA5BEFE77F03D25D2A4BE2373EE3DB1
:104AB0001A38A4BE2D70EC3DA99DA3BE1C6FEA3D23
:104AC000D302A3BEF36FE83D9967A2BEB172E63D83
:104AD000FBCBA1BE5A77E43DF92FA1BEED7DE23DAF
:104AE0009393A0BE6C86E03DCBF69FBED890DE3D92
:104AF0009F599FBE329DDC3D12BC9EBE7CABDA3D11
:104B0000221E9EBEB7BBD83DD17F9DBEE4CDD63D13
:104B10001FE19CBE03E2D43D0C429CBE18F8D23D7E
:104B200099A29BBE2110D13DC6029BBE222ACF3D39
:104B300093629ABE1A46CD3D00C299BE0B64CB3D2E
:104B40000F2199BEF783C93DC07F98BEDEA5C73D42
:104B500012DE97BEC1C9C53D073C97BEA2EFC33D5B
:104B60009F9996BE8217C23DD9F695BE6241C03D5F
:104B7000B75395BE436DBE3D39B094BE269BBC3D38
:104B80005F0C94BE0CCBBA3D2A6893BEF7FCB83DCF
:104B90009AC392BEE730B73DB01E92BEDE66B53D09
:104BA0006B7991BEDD9EB33DCDD390BEE4D8B13DCF
:104BB000D52D90BEF614B03D84878FBE1253AE3D06
:104BC000DBE08EBE3B93AC3DDA398EBE71D5AA3D9B
:104BD00081928DBEB519A93DD0EA8CBE0860A73D73
:104BE000C9428CBE6CA8A53D6B9A8BBEE2F2A33D78
:104BF000B7F18ABE693FA23DAD488ABE058EA03D91
:104C00004E9F89BEB5DE9E3D9BF588BE7B319D3DA6
:104C1000924B88BE57869B3D36A187BE4BDD993DA2
:104C200086F686BE5836983D824B86BE7F91963D6D
:104C30002CA085BEC0EE943D84F484BE1D4E933DF1
:104C4000894884BE97AF913D3D9C83BE2F13903D14
:104C50009FEF82BEE6788E3DB14282BEBCE08C3DC5
:104C6000739581BEB34A8B3DE4E780BECCB6893DE7
:104C7000063A80BE0725883DB2177FBE6795863D00
:104C8000BBBA7DBEEA07853D275D7CBE947C833D33
:104C9000F7FE7ABE64F3813D2DA079BE5B6C803D4A
:104CA000C84078BEF6CE7D3DCBE076BE89C97A3D60
:104CB000358075BE70C8773D071F74BEAECB743D9E
:104CC00043BD72BE44D3713DEA5A71BE34DF6E3DBE
:104CD000FBF76FBE80EF6B3D79946EBE2A04693D91
:104CE00063306DBE331D663DBBCB6BBE9E3A633DEC
:104CF00081666ABE6B5C603DB70069BE9E825D3DA9
:104D00005D9A67BE38AD5A3D753366BE3ADC573D95
:104D1000FECB64BEA60F553DFA6363BE7D47523D90
:104D20006AFB61BEC3834F3D4F9260BE78C44C3D69
:104D3000A9285FBE9E094A3D79BE5DBE3653473DF8
:104D4000C1535CBE43A1443D80E85ABEC6F3413D19
:104D5000B97C59BEC04A3F3D6B1058BE34A63C3D9D
:104D600099A356BE23063A3D413655BE8E6A373D5D
:104D700067C853BE78D3343D095A52BEE140323D34
:104D80002AEB50BECCB22F3DCA7B4FBE39292D3DF8
:104D9000EA0B4EBE2BA42A3D8B9B4CBEA323283D81
:104DA000AE2A4BBEA3A7253D53B949BE2C30233DA7
:104DB0007C4748BE3FBD203D29D546BEDF4E1E3D47
:104DC0005C6245BE0CE51B3D15EF43BEC97F193D36
:104DD000557B42BE161F173D1E0741BEF5C2143D4E
:104DE0006F923FBE676B123D4A1D3EBE6F18103D6D
:104DF000AFA73CBE0DCA0D3DA0313BBE43800B3D6D
:104E00001EBB39BE123B093D2A4438BE7CFA063D22
:104E1000C3CC36BE82BE043DEC5435BE2587023D70
:104E2000A5DC33BE6754003DEF6332BE934CFC3CBF
:104E3000CBEA30BE9BF9F73C3A712FBEE8AFF33CAA
:104E40003CF72DBE7E6FEF3CD47C2CBE5E38EB3C35
:104E500001022BBE8C0AE73CC48629BE0AE6E23C6E
:104E60001F0B28BEDACADE3C128F26BE00B9DA3C20
:104E70009F1225BE7EB0D63CC59523BE55B1D23C0F
:104E8000871822BE8ABBCE3CE59A20BE1DCFCA3C05
:104E9000DF1C1FBE12ECC63C789E1DBE6B12C33CCD
:104EA000AF1F1CBE2A42BF3C86A01ABE527BBB3C31
:104EB000FE2019BEE5BDB73C17A117BEE509B43CFD
:104EC000D22016BE555FB03C31A014BE36BEAC3CFD
:104ED000351F13BE8C26A93CDD9D11BE5798A53CFD
:104EE0002C1C10BE9C13A23C229A0EBE5A989E3CCB
:104EF000C0170DBE96269B3C07950BBE51BE973C36
:104F0000F7110ABE8C5F943C938E08BE4B0A913C0D
:104F1000DA0A07BE8FBE8D3CCE8605BE5A7C8A3C1F
:104F2000700204BEAE43873CC07D02BE8D14843C3B
:104F3000C0F800BEFAEE803CE1E6FEBDEBA57B3C8E
:104F4000A4DBFBBD0481753CCCCFF8BD436F6F3C47
:104F50005AC3F5BDAC70693C51B6F2BD4285633CA5
:104F6000B2A8EFBD09AD5D3C7F9AECBD04E8573CAB
:104F7000BA8BE9BD3736523C667CE6BDA6974C3C01
:104F8000836CE3BD540C473C135CE0BD4494413C4E
:104F90001A4BDDBD7A2F3C3C9739DABDF9DD363C42
:104FA0008F27D7BDC59F313C0115D4BDE0742C3C83
:104FB000F101D1BD4F5D273C60EECDBD1359223CC0
:104FC0004FDACABD30681D3CC2C5C7BDA98A183CAE
:104FD000B9B0C4BD82C0133C379BC1BDBD090F3CF5
:104FE0003E85BEBD5C660A3CCF6EBBBD64D6053C4B
:104FF000EC57B8BDD659013C9840B5BD6BE1F93BC3
:10500000D428B2BD0B36F13BA210AFBD90B1E83B46
:1050100004F8ABBD0154E03BFCDEA8BD611DD83BEC
:105020008CC5A5BDB60DD03BB6ABA2BD0625C83B11
:105030007B919FBD5563C03BDE769CBDA7C8B83B46
:10504000E05B99BD0255B13B834096BD6A08AA3B1F
:10505000CA2493BDE3E2A23BB70890BD73E49B3B37
:105060004AEC8CBD1D0D953B86CF89BDE55C8E3B22
:105070006EB286BDD0D3873B029583BDE271813B82
:10508000457780BD3C6E763B73B27ABD12476A3B72
:10509000C07574BD4C6E5E3B76386EBDF2E3523B1C
:1050A0009AFA67BD0AA8473B2EBC61BD9DBA3C3B3E
:1050B000377D5BBDAF1B323BB93D55BD49CB273B6F
:1050C000B7FD4EBD71C91D3B36BD48BD2C16143B06
:1050D000397C42BD80B10A3BC33A3CBD749B013B65
:1050E000DAF835BD1AA8F13A80B62FBDA1B6E03A7C
:1050F000BA7329BD8762D03A8C3023BDD6ABC03A93
:10510000F9EC1CBD9892B13A05A916BDD616A33A82
:10511000B46410BD9A38953A0A200ABDECF7873A74
:105120000ADB03BDA7A9763A742BFBBCB29E5E3A9C
:1051300038A0EEBC07CF473A6914E2BCB53A323A20
:105140000E88D5BCC8E11D3A30FBC8BC4EC40A3A33
:10515000D56DBCBCA5C4F13907E0AFBCBF77D03971
:10516000CB51A3BC00A2B1392CC396BC7B4395396B
:105170002F348ABC84B87639BA497BBCC7D8473942
:105180007A2A62BCDFE71D39B00A49BCC8CBF138C6
:1051900069EA2FBCDAA5B138B6C916BC3BBC763873
:1051A0004B51FBBB64E91D38900EC9BBD1A6B1378A
:1051B00058CB96BBC6E91D37880F49BBDEE91D36C3
:1051C000C60FC9BA00000000E845D2A8DEE91D36C6
:1051D000C60FC93AC6E91D37880F493BD1A6B1377A
:1051E00058CB963B64E91D38900EC93B3BBC7638E2
:1051F0004B51FB3BDAA5B138B6C9163CC8CBF138E8
:1052000069EA2F3CDFE71D39B00A493CC7D8473966
:105210007A2A623C84B87639BA497B3C7B4395391B
:105220002F348A3C00A2B1392CC3963CBF77D039C9
:10523000CB51A33CA5C4F13907E0AF3C4EC40A3AB8
:10524000D56DBC3CC8E11D3A30FBC83CB53A323A9A
:105250000E88D53C07CF473A6914E23CB29E5E3ACD
:1052600038A0EE3CA7A9763A742BFB3CECF7873AC2
:105270000ADB033D9A38953A0A200A3DD616A33A2E
:10528000B464103D9892B13A05A9163DD6ABC03A28
:10529000F9EC1C3D8762D03A8C30233DA1B6E03A50
:1052A000BA73293D1AA8F13A80B62F3D749B013B91
:1052B000DAF8353D80B10A3BC33A3C3D2C16143B2D
:1052C000397C423D71C91D3B36BD483D49CB273B2A
:1052D000B7FD4E3DAF1B323BB93D553D9DBA3C3B02
:1052E000377D5B3D0AA8473B2EBC613DF2E3523B54
:1052F0009AFA673D4C6E5E3B76386E3D12476A3BCC
:10530000C075743D3C6E763B73B27A3DE271813B71
:105310004577803DD0D3873B0295833DE55C8E3B4E
:105320006EB2863D1D0D953B86CF893D73E49B3B58
:105330004AEC8C3DE3E2A23BB708903D6A08AA3BE9
:10534000CA24933D0255B13B8340963DA7C8B83B64
:10535000E05B993D5563C03BDE769C3D0625C83B2E
:105360007B919F3DB60DD03BB6ABA23D611DD83BB6
:105370008CC5A53D0154E03BFCDEA83D90B1E83B67
:1053800004F8AB3D0B36F13BA210AF3D6BE1F93BAE
:10539000D428B23DD659013C9840B53D64D6053C71
:1053A000EC57B83D5C660A3CCF6EBB3DBD090F3C77
:1053B0003E85BE3D82C0133C379BC13DA98A183C47
:1053C000B9B0C43D30681D3CC2C5C73D1359223C2D
:1053D0004FDACA3D4F5D273C60EECD3DE0742C3C7A
:1053E000F101D13DC59F313C0115D43DF9DD363C7D
:1053F0008F27D73D7A2F3C3C9739DA3D4494413C86
:105400001A4BDD3D540C473C135CE03DA6974C3CE9
:10541000836CE33D3736523C667CE63D04E8573CFE
:10542000BA8BE93D09AD5D3C7F9AEC3D4285633C1A
:10543000B2A8EF3DAC70693C51B6F23D436F6F3C92
:105440005AC3F53D0481753CCCCFF83DEBA57B3CC0
:10545000A4DBFB3DFAEE803CE1E6FE3D8D14843C8E
:10546000C0F8003EAE43873CC07D023E5A7C8A3C79
:105470007002043E8FBE8D3CCE86053E4B0A913CA9
:10548000DA0A073E8C5F943C938E083E51BE973CEF
:10549000F7110A3E96269B3C07950B3E5A989E3C78
:1054A000C0170D3E9C13A23C229A0E3E5798A53C75
:1054B0002C1C103E8C26A93CDD9D113E36BEAC3C1A
:1054C000351F133E555FB03C31A0143EE509B43C96
:1054D000D220163EE5BDB73C17A1173E527BBB3C20
:1054E000FE20193E2A42BF3C86A01A3E6B12C33CE6
:1054F000AF1F1C3E12ECC63C789E1D3E1DCFCA3C21
:10550000DF1C1F3E8ABBCE3CE59A203E55B1D23C03
:105510008718223E7EB0D63CC595233E00B9DA3CC2
:105520009F12253EDACADE3C128F263E0AE6E23C96
:105530001F0B283E8C0AE73CC486293E5E38EB3CB4
:1055400001022B3E7E6FEF3CD47C2C3EE8AFF33C57
:105550003CF72D3E9BF9F73C3A712F3E934CFC3CB7
:10556000CBEA303E6754003DEF63323E2587023D73
:10557000A5DC333E82BE043DEC54353E7CFA063D4C
:10558000C3CC363E123B093D2A44383E43800B3D96
:105590001EBB393E0DCA0D3DA0313B3E6F18103D7C
:1055A000AFA73C3E676B123D4A1D3E3EF5C2143D1F
:1055B0006F923F3E161F173D1E07413EC97F193DA2
:1055C000557B423E0CE51B3D15EF433EDF4E1E3D35
:1055D0005C62453E3FBD203D29D5463E2C30233DF3
:1055E0007C47483EA3A7253D53B9493EA323283D08
:1055F000AE2A4B3E2BA42A3D8B9B4C3E39292D3D98
:10560000EA0B4E3ECCB22F3DCA7B4F3EE140323DCD
:105610002AEB503E78D3343D095A523E8E6A373DCC
:1056200067C8533E23063A3D4136553E34A63C3DBD
:1056300099A3563EC04A3F3D6B10583EC6F3413DCC
:10564000B97C593E43A1443D80E85A3E3653473D1C
:10565000C1535C3E9E094A3D79BE5D3E78C44C3DD7
:10566000A9285F3EC3834F3D4F92603E7D47523D28
:105670006AFB613EA60F553DFA63633E3ADC573D37
:10568000FECB643E38AD5A3D7533663E9E825D3D2D
:105690005D9A673E6B5C603DB700693E9E3A633D34
:1056A00081666A3E331D663DBBCB6B3E2A04693D75
:1056B00063306D3E80EF6B3D79946E3E34DF6E3D1E
:1056C000FBF76F3E44D3713DEA5A713EAECB743D59
:1056D00043BD723E70C8773D071F743E89C97A3D4D
:1056E0003580753EF6CE7D3DCBE0763E5B6C803DF1
:1056F000C840783E64F3813D2DA0793E947C833D83
:10570000F7FE7A3EEA07853D275D7C3E6795863D3C
:10571000BBBA7D3E0725883DB2177F3ECCB6893D9A
:10572000063A803EB34A8B3DE4E7803EBCE08C3DC8
:105730007395813EE6788E3DB142823E2F13903DB7
:105740009FEF823E97AF913D3D9C833E1D4E933D22
:105750008948843EC0EE943D84F4843E7F91963D1A
:105760002CA0853E5836983D824B863E4BDD993DB8
:1057700086F6863E57869B3D36A1873E7B319D3D12
:10578000924B883EB5DE9E3D9BF5883E058EA03D42
:105790004E9F893E693FA23DAD488A3EE2F2A33D5D
:1057A000B7F18A3E6CA8A53D6B9A8B3E0860A73D79
:1057B000C9428C3EB519A93DD0EA8C3E71D5AA3DAF
:1057C00081928D3E3B93AC3DDA398E3E1253AE3D15
:1057D000DBE08E3EF614B03D84878F3EE4D8B13DC9
:1057E000D52D903EDD9EB33DCDD3903EDE66B53DDA
:1057F0006B79913EE730B73DB01E923EF7FCB83D65
:105800009AC3923E0CCBBA3D2A68933E269BBC3D80
:105810005F0C943E436DBE3D39B0943E6241C03D45
:10582000B753953E8217C23DD9F6953EA2EFC33DD0
:105830009F99963EC1C9C53D073C973EDEA5C73D31
:1058400012DE973EF783C93DC07F983E0B64CB3D87
:105850000F21993E1A46CD3D00C2993E222ACF3DE6
:1058600093629A3E2110D13DC6029B3E18F8D23D6C
:1058700099A29B3E03E2D43D0C429C3EE4CDD63D32
:105880001FE19C3EB7BBD83DD17F9D3E7CABDA3D4E
:10589000221E9E3E329DDC3D12BC9E3ED890DE3DD7
:1058A0009F599F3E6C86E03DCBF69F3EED7DE23DED
:1058B0009393A03E5A77E43DF92FA13EB172E63DA5
:1058C000FBCBA13EF36FE83D9967A23E1C6FEA3D1A
:1058D000D302A33E2D70EC3DA99DA33E2373EE3D64
:1058E0001A38A43EFE77F03D25D2A43EBC7EF23DA0
:1058F000CB6BA53E5D87F43D0A05A63EDE91F63DE5
:10590000E39DA63E3F9EF83D5636A73E7EACFA3D4F
:1059100061CEA73E9ABCFC3D0566A83E91CEFE3DF9
:1059200041FDA83E3271003E1594A93E087C013E1F
:10593000802AAA3EC987023E82C0AA3E7694033ED0
:105940001B56AB3E0EA2043E4AEBAB3E90B0053E6A
:105950000F80AC3EFBBF063E6914AD3E4ED0073E05
:1059600059A8AD3E8AE1083EDE3BAE3EADF3093EAE
:10597000F7CEAE3EB7060B3EA561AF3EA71A0C3E72
:10598000E6F3AF3E7D2F0D3EBB85B03E37450E3E64
:105990002217B13ED55B0F3E1DA8B13E5673103E97
:1059A000AA38B23EBB8B113EC9C8B23E01A5123E19
:1059B0007A58B33E29BF133EBCE7B33E31DA143EFA
:1059C0008F76B43E1AF6153EF304B53EE112173E4B
:1059D000E792B53E8830183E6C20B63E0C4F193E1B
:1059E0007FADB63E6E6E1A3E233AB73EAC8E1B3E7E
:1059F00055C6B73EC6AF1C3E1652B83EBBD11D3E83
:105A000065DDB83E8BF41E3E4268B93E3418203E38
:105A1000ACF2B93EB73C213EA47CBA3E1262223EB3
:105A20002906BB3E4488233E3B8FBB3E4EAF243EFF
:105A3000D917BC3E2DD7253E03A0BC3EE3FF263E32
:105A4000B827BD3E6D29283EF9AEBD3ECB53293E59
:105A5000C535BE3EFC7E2A3E1BBCBE3E01AB2B3E86
:105A6000FC41BF3ED7D72C3E67C7BF3E7E052E3ECA
:105A70005C4CC03EF6332F3EDAD0C03E3E63303E33
:105A8000E154C13E5493313E70D8C13E39C4323ED8
:105A9000895BC23EECF5333E29DEC23E6B28353EC3
:105AA0005160C33EB65B363E00E2C33ECD8F373E0B
:105AB0003763C43EAEC4383EF5E3C43E59FA393EBE
:105AC0003964C53ECE303B3E03E4C53E0A683C3EE9
:105AD0005463C63E0FA03D3E2AE2C63EDAD83E3EA3
